S0230000546573744D6963726F636F6E74726F6C6C65724669726D776172652E73726563E6
S11300000C943A000C9457000C9457000C9457002D
S11300100C9457000C9457000C9457000C94570000
S11300200C9457000C9457000C9457000C948E00B9
S11300300C9457000C9457000C9457000C945700E0
S11300400C9457000C9457000C9457000C945700D0
S11300500C9457000C9457000C9457000C945700C0
S11300600C9457000C9457000C9457000C945700B0
S11300700C94570011241FBECFEFD2E0DEBFCDBFDA
S113008011E0A0E0B1E0E2E9F2E002C005900D92D7
S1130090A230B107D9F721E0A2E0B1E001C01D927E
S11300A0A031B207E1F70E9459000C9447010C9467
S11300B00000FFCF982F29C0292F2F702093E9002B
S11300C0981739F07091EC002091ED005091F000F8
S11300D003C0242F762F50E021FF16C0EBEEF0E092
S11300E030813E7F3083ADEEB0E03C913D7F3C9368
S11300F03081316030837093EC002C935093F00086
S11301002091EE00222344F49F5F9530A8F28F7073
S11301108093E90081E0089580E008951F920F9292
S11301200FB60F9211242F933F934F935F936F93C6
S11301307F938F939F93AF93BF93EF93FF9380919C
S1130140E10082FF0BC08091E20082FF07C0E1EE74
S1130150F0E080818B7F80830E9446018091E100E2
S113016080FF19C08091E20080FF15C0E2EEF0E04C
S113017080818E7F8083808180618083E8EDF0E0E0
S11301808081806280838091020182FF19BC109279
S113019007010E9446018091E10084FF33C08091F1
S11301A0E20084FF2FC08091020182FD06C019BCC9
S11301B082E089BD09B400FEFDCFE8EDF0E0808166
S11301C08F7D8083E1EEF0E080818F7E8083E2EE9C
S11301D0F0E080818F7E8083808181608083809144
S11301E00301882321F084E08093070109C08091F2
S11301F0E300882314F483E001C081E080930701C5
S11302000E9446018091E10083FF2FC08091E200AB
S113021083FF2BC0E1EEF0E08081877F808382E062
S1130220809307011092030180818E7F8083E2EE28
S1130230F0E080818E7F8083808180618083209143
S1130240000130E088E090E040E003C04F5F880F99
S1130250991F82179307D0F34295407F426060E074
S113026080E00E945A000E944601FF91EF91BF91E5
S1130270AF919F918F917F916F915F914F913F913A
S11302802F910F900FBE0F901F9018950895F8941A
S1050290FFCF9A
S105029208005E
S9030000FC
