S0170000434C4153535F4B4559424F415244322E73726563B5
S1130000A8C00000C4C00000C2C00000C0C00000FE
S1130010BEC00000BCC00000BAC00000B8C00000F0
S1130020B6C00000B4C000004CC70000B0C000005F
S1130030AEC00000ACC00000AAC00000A8C0000010
S1130040A6C00000A4C00000A2C00000A0C0000020
S11300509EC000009CC000009AC0000098C0000030
S113006096C0000094C0000092C0000090C0000040
S11300708EC000008CC000008AC0000088C0000050
S113008086C0000084C0000082C0000080C0000060
S11300907EC000007CC0000026034C0055004600D2
S11300A0410020004B006500790062006F00610090
S11300B0720064002000440065006D006F000000C1
S11300C018034400650061006E00200043006100D5
S11300D06D00650072006100000004030904090258
S11300E02200010100C032090400000103010100E3
S11300F009211101000122400007058103080005C0
S11301001201100100000008EB034220010001026B
S1130110000105010906A101050719E029E71500F9
S1130120250175019508810295017508810105086D
S11301301901290595057501910295017503910130
S1130140150026FF000507190029FF95067508818B
S113015000C011241FBECFEFD0E2DEBFCDBF11E03F
S1130160A0E0B1E0E2EBF3E100E00BBF02C00790D6
S11301700D92A433B107D9F721E0A4E3B1E001C0A3
S11301801D92AE35B207E1F76BD00C94D70938CF86
S1130190292F332723303105C9F038F421303105B4
S11301A059F02230310569F035C02132310541F171
S11301B02232310551F12EC082E190E020E031E09D
S11301C032C082E290E02EED30E02DC099278130DC
S11301D0910551F018F0029769F021C0EAEDF0E0C2
S11301E0849190E09F011FC0E0ECF0E0849190E0E6
S11301F09F0119C0E8E9F0E0849190E09F0113C0E9
S113020089E090E020EF30E00EC080E490E022E14D
S113021031E009C080E090E020E030E004C080E0FC
S113022090E020E030E0FA0131832083089584B720
S1130230877F84BF0FB6F894A89580916000886189
S113024080936000109260000FBE90E080E80FB6CB
S1130250F89480936100909361000FBE42C00895AA
S1130260E6DF789448D080E091E08FD20E94A00924
S1130270F9CF0895089580E091E073D2E2EEF0E0C2
S1130280808184608083089580E091E021C1089595
S113029080910E0190910F01009729F0019790939E
S11302A00F0180930E0108950F931F93ECE3F1E087
S11302B0A22FB32F28E431E081919191009719F096
S11302C012968C9312971196E217F307A9F788E018
S11302D090E0F8019183808380E01F910F9108954D
S11302E0089581E884B980EC87B981E084B980E419
S11302F087B93F9A08952F923F924F925F926F92DF
S11303007F928F929F92AF92BF92CF92DF92EF92A1
S1130310FF920F931F93CF93DF9360E171E00F2E51
S1130320F8E44F2EF1E05F2EF02D0F2EF2E22F2E87
S1130330F1E03F2EF02D01E010E00F2EF2E2AF2E9F
S1130340F1E0BF2EF02D66246394902E812E8FE36E
S11303509CE90197F1F700C000006B01DB01ED910E
S1130360FC9111972081C80112960C9002C0880F4D
S1130370991F0A94E2F782238083E9E1F1E0D10135
S11303807201CFE3DCE92197F1F700C00000F89493
S11303907280272D30E0E701892D982D711002C05D
S11303A080E090E0A801072C02C0440F551F0A9476
S11303B0E2F784239523488150E08417950709F4D4
S11303C04CC002C0359527957A94E2F720FF22C0ED
S11303D06882CCE3D1E088819981892B49F0CEE30E
S11303E0D1E081E090E029913991232B71F402C08E
S11303F080E090E0880F991FEC01C45CDE4F8D9182
S11304009C9111979983888328C001968630910521
S113041051F723C018824D915C911197CCE3D1E040
S1130420888199818417950751F0CEE3D1E081E06A
S113043090E0299139912417350759F402C080E0DE
S113044090E0880F991FEC01C45CDE4F198218827A
S113045004C001968630910561F73396DFEFED1AFB
S1130460FD0A1296EA15FB0509F08BCF7894D601A4
S1130470ED91FC9111979081980112960C9002C015
S1130480220F331F0A94E2F7822F809589238083F9
S11304906D5F7F4FB3E04B0E511CC6E02C0E311C38
S11304A0D1E069317D0709F052CFDF91CF911F91DF
S11304B00F91FF90EF90DF90CF90BF90AF909F90FF
S11304C08F907F906F905F904F903F902F90089502
S11304D03F924F925F926F927F928F929F92AF92D0
S11304E0BF92CF92DF92EF92FF920F931F93CF931D
S11304F0DF9300D01F92CDB7DEB76C01EDB6FEB628
S11305008091E80083FF13C1F601808190E020917F
S11305105A0130915B012817390709F008C180910D
S11305205701833009F4A0C030F4813071F0823077
S113053009F4E2C0FCC08A3009F4C2C08B3009F46B
S1130540ABC0893009F0F3C051C080915601813AA3
S113055009F0EDC0ADB6BEB61A821982E6E5F1E047
S1130560828113818B83F6018085482F50E08DB7FB
S11305709EB7841B950B0FB6F8949EBF0FBE8DBF1C
S1130580EDB7FEB731964F0160E070E0CF0108D7B8
S11305904FEF410F8E010F5F1F4F9401BE016D5F3E
S11305A07F4FC60181DEF60186819781009721F095
S11305B0408550E0B401EBD61092E900E8EEF0E09B
S11305C08081877F80838B8181118093F100698191
S11305D07A81C401F4D1E8EEF0E080818B778083E6
S11305E00FB6F894BEBE0FBEADBEA1C08091560139
S11305F0813209F09CC06DB67EB6E6E5F1E0068175
S11306001781528043808DB79EB7801B910B0FB624
S1130610F8949EBF0FBE8DBFEDB7FEB731964F0164
S11306200F2EF8EEAF2EB12CF02DF5018081877FCF
S11306308083B801C40142D2F50180818E77808322
S113064021E0511001C020E030E0021B130B280D03
S1130650391D4FEF440D652DC60142DE0FB6F894E7
S11306607EBE0FBE6DBE63C080915601813A09F013
S11306705EC0E8EEF0E08081877F8083808180FF28
S1130680FDCFF60181858093F100E8EEF0E08081F2
S11306908E778083B1D34BC080915601813209F0AB
S11306A046C0E8EEF0E08081877F8083A5D39091F7
S11306B0580181E0911101C080E0F601818737C0C3
S11306C080915601813299F5E8EEF0E08081877FD0
S11306D0808392D3809158019091590188270024F6
S11306E0880F991F001C880F991F001C892F902DBB
S11306F0F601958784871BC080915601813AB9F42D
S1130700E8EEF0E08081877F8083808180FFFDCFE9
S1130710F60184859585969587959695879580931A
S1130720F100E8EEF0E080818E77808365D30FB628
S1130730F894FEBE0FBEEDBE0F900F900F90DF91A8
S1130740CF911F910F91FF90EF90DF90CF90BF90CA
S1130750AF909F908F907F906F905F904F903F905D
S11307600895FC01399627E0DF011D922A95E9F7E7
S113077021E0FC01218724EF31E03587248723E041
S1130780248361E00196E9C208955F926F927F929B
S11307908F929F92AF92BF92CF92DF92EF92FF928D
S11307A00F931F93CF93DF9300D01F92CDB7DEB783
S11307B07C01ADB6BEB680915501843009F08AC083
S11307C08091E4009091E500F70122853385281794
S11307D0390709F47FC081818F708093E90080918B
S11307E0E80085FF77C08DB69EB6408550E08DB792
S11307F09EB7841B950B0FB6F8949EBF0FBE8DBF9A
S1130800EDB7FEB731966F011B821A82198260E040
S113081070E0CF01C5D58E010F5F1F4F960140E0F8
S1130820BE016D5F7F4FC7013FDD582EF701848500
S11308309585892B41F081E026853785232B09F0A6
S113084080E0782E01C0712CF70106811781011513
S1130850110589F049815A81B801C6018BD56624F6
S11308606394892B09F4612CF701408550E0B601AB
S1130870C8018DD501C0612C89819A81892BF1F041
S1130880511004C0611002C070FE18C0F7018485C5
S113089095859787868781818F708093E9008B8106
S11308A081118093F10069817A8140E050E0C601B2
S11308B029D0E8EEF0E080818E7780838091E40097
S11308C09091E500F701938782870FB6F8949EBE56
S11308D00FBE8DBE0FB6F894BEBE0FBEADBE0F9058
S11308E00F900F90DF91CF911F910F91FF90EF9098
S11308F0DF90CF90BF90AF909F908F907F906F903C
S11309005F9008958F929F92AF92BF92CF92DF92A1
S1130910EF92FF920F931F93CF93DF938C01EB0120
S11309205A018ED281113EC0A114B10439F0F501EF
S113093080819181C81BD90B080F191F209789F159
S1130940E12CF12C0F2EF8EE8F2E912CF02D0F2E82
S1130950F1EFCF2ED12CF02DF401808185FD14C050
S113096080818E778083ECD4A114B10449F0F50121
S113097080819181E80EF91EF182E08285E012C047
S11309805FD2882351F00EC0F80181918F01F601E6
S113099080832197FFEFEF1AFF0A2097E9F680E0A2
S11309A001C080E0DF91CF911F910F91FF90EF90F4
S11309B0DF90CF90BF90AF909F908F900895EF926B
S11309C0FF920F931F93CF93DF9320915C0130919B
S11309D05D012617370758F06115710539F4E8EE03
S11309E0F0E020812E7720839B0101C09B01A82F7A
S11309F0B92F90E0E8EEF0E062EF70E00F2EF1EF37
S1130A00EF2EF12CF02D11E000E02FC08091550164
S1130A10882309F441C0853009F440C0808183FDF6
S1130A203FC0808182FD31C0808180FF1EC0EB0108
S1130A30488159812115310581F04830510568F408
S1130A408D91E7018883215031094F5F5F4F211554
S1130A50310519F04830510599F7912F4830510567
S1130A6009F0902F80818E7780832115310571F6EE
S1130A709111CCCF0AC080915501882399F085301B
S1130A8099F0808183FF03C011C0E8EEF0E080811B
S1130A9082FFF1CF80E00BC082E009C083E007C091
S1130AA081E005C082E003C083E001C081E0DF9102
S1130AB0CF911F910F91FF90EF900895CF93DF9303
S1130AC06115710539F5E8EEF0E080818B7780835C
S1130AD03DC080915501882309F43FC0853009F455
S1130AE03EC0808183FD3DC0808182FFF2CF45C03E
S1130AF0E90188818D936150710929F0EA018881A7
S1130B009981892BA9F780818B7780836115710581
S1130B1049F41CC0A82FB92FE8EEF0E042EF50E0F2
S1130B2021EF30E0809155018823E9F08530E9F028
S1130B30808183FD1CC0808182FD1FC0CACF80914B
S1130B4055018823B1F0853019F415C0E8EEF0E0C2
S1130B50808180FFF4CF80E017C082E015C083E07D
S1130B6013C081E011C082E00FC083E00DC081E0BA
S1130B700BC082E009C083E007C0EA018881998143
S1130B80892B09F0B5CFBFCFDF91CF910895EF92B4
S1130B90FF920F931F93CF93DF9320915C013091C9
S1130BA05D012617370758F06115710539F4E8EE31
S1130BB0F0E020812E7720839B0101C09B01E82F68
S1130BC0F92F90E0A8EEB0E062EF70E00F2EF1EFA5
S1130BD0EF2EF12CF02D11E000E030C08091550192
S1130BE0882309F442C0853009F441C08C9183FD07
S1130BF040C08C9182FD32C08C9180FF1FC0EB01FC
S1130C00488159812115310589F04830510570F426
S1130C108491E70188833196215031094F5F5F4FFA
S1130C202115310519F04830510591F7912F4830BD
S1130C30510509F0902F8C918E778C9321153105F5
S1130C4069F69111CBCF0AC080915501882399F0A0
S1130C50853099F0808183FF03C011C0E8EEF0E095
S1130C60808182FFF1CF80E00BC082E009C083E085
S1130C7007C081E005C082E003C083E001C081E0D9
S1130C80DF91CF911F910F91FF90EF9008958F9274
S1130C909F92BF92CF92DF92EF92FF920F931F9396
S1130CA0CF93DF93873070F126C0292F2F70E7018F
S1130CB02883891731F0E80178812081E401588183
S1130CC003C0242F762F5B2D21FF12C03C913E7F61
S1130CD03C9330813D7F30833C9131603C93E8010B
S1130CE078832083E4015883E6012881222344F495
S1130CF09F5F9730D1F68F708093E90081E021C027
S1130D0080E01FC0982F9F709093E900982F242FA4
S1130D10762F50E0ABEEB0E0EDEEF0E00CEE10E03C
S1130D200F2EF0EF8F2E912CF02D0F2EFEEECF2EE6
S1130D30D12CF02D0F2EF9EEEF2EF12CF02DB12C3D
S1130D40C3CFDF91CF911F910F91FF90EF90DF9070
S1130D50CF90BF909F908F900895EF92FF920F9342
S1130D601F93CF93DF936623E9F1062FC82FD92F62
S1130D7010E00F2EF6E0FF2EF02D6894EE24E1F83B
S1130D805881552349F19C81E981FA816B81852F32
S1130D908F70873048F5923010F44E2D01C04F2DDE
S1130DA0E930F10550F028E030E090E09F5F220F39
S1130DB0331F2E173F07D0F301C090E09295907F28
S1130DC0492B90E4699FB0011124551F5527551FE5
S1130DD0652B5DDF882349F01F5F25960113D0CF73
S1130DE081E003C081E001C080E0DF91CF911F91D9
S1130DF00F91FF90EF90089580915601882344F05D
S1130E00E8EEF0E014C080915501811103C008950B
S1130E10E8EEF0E0808182FFF6CFE8EEF0E080813A
S1130E208B778083089580915501882341F08081D8
S1130E3080FFF9CFE8EEF0E080818E77808308951B
S1130E400F931F93CF93DF932091E4003091E5003B
S1130E5065E6ACEEB0E0E8EEF0E00BEE10E044EE58
S1130E6050E001C09C019C91892F817090FD1DC0B0
S1130E7020C080915501882381F0853081F0E801FC
S1130E80888185FD0EC0EA01888199812817390778
S1130E9051F3615039F784E00FC082E00DC083E064
S1130EA00BC081E009C080E007C0808180FFE1CFF2
S1130EB0FACF908192FFDDCFDF91CF911F910F91F7
S1130EC008951F920F920FB60F9211240BB60F9232
S1130ED02F933F934F935F936F937F938F939F933E
S1130EE0AF93BF93EF93FF938091E10082FF0AC019
S1130EF08091E20082FF06C0E1EEF0E080818B7F0A
S1130F008083C6D98091DA0080FF1DC08091D8000B
S1130F1080FF19C0EAEDF0E080818E7F80838091AC
S1130F20D90080FF0CC084E189BD86E189BD09B484
S1130F3000FEFDCF81E0809355019BD904C019BC0C
S1130F401092550197D98091E10080FF16C08091DD
S1130F50E20080FF12C0E2EEF0E080818E7F8083A9
S1130F60808180618083E8EDF0E08081806280830D
S1130F7019BC85E080935501E2D18091E10084FFA2
S1130F802FC08091E20084FF2BC084E189BD86E1FB
S1130F9089BD09B400FEFDCFE8EDF0E080818F7DCE
S1130FA08083E1EEF0E080818F7E8083E2EEF0E0EA
S1130FB080818F7E808380818160808380915101D4
S1130FC0882321F084E08093550109C08091E300D7
S1130FD0882314F081E001C083E080935501AFD1F0
S1130FE08091E10083FF1EC08091E20083FF1AC05C
S1130FF0E1EEF0E08081877F808382E08093550179
S11310001092510180818E7F8083E2EEF0E0808136
S11310108E7F808380818061808342E060E080E015
S113102036DE8DD1FF91EF91BF91AF919F918F915A
S11310307F916F915F914F913F912F910F900BBED4
S11310400F900FBE0F901F9018950F931F93CF937F
S1131050DF93CDB7DEB7AA970FB6F894DEBF0FBE05
S1131060CDBFE6E5F1E02EE531E0A1EFB0E08C91F3
S113107081932E173F07D9F707D98091E80083FFA2
S113108039C1E6E5F1E090818181853009F47FC0C2
S113109030F48130C9F168F08330B1F12BC188306C
S11310A009F4F2C0893009F4FFC0863009F022C186
S11310B091C0903821F0923809F01CC108C0809189
S11310C0520190915301992389F082600FC080915D
S11310D05A018F70873008F00DC1E9EEF0E080838B
S11310E08091EB0085FB882780F91082E8EEF0E020
S11310F09081977F9083A1EFB0E08C931C928081C4
S11311008E77808379DEF6C0992309F402C1923088
S113111009F0F0C003C191E0833009F090E09093AE
S113112053012CC080915A018F709FEF980F963015
S113113008F0E0C08093E9009091EB0090FF1EC09E
S113114090915701933031F4EBEEF0E080818062AE
S1131150808314C0EBEEF0E090819061908321E0F5
S113116030E0A90102C0440F551F8A95E2F7AAEEA8
S1131170B0E04C931C928081886080831092E900D7
S1131180E8EEF0E08081877F808336DEB3C0911182
S1131190B1C0109158011F77E3EEF0E080818078B0
S11311A0812B8083E8EEF0E08081877F808324DEDA
S11311B0E8EEF0E0808180FFFDCFE3EEF0E0808197
S11311C080688083111102C082E001C083E08093B3
S11311D0550190C09058923008F08CC0809158010D
S11311E0909159018C3D53E0950799F583E08A83EA
S11311F08AE289835FB7F894DE01139620E03EE02B
S113120041E2E32FF0E040935700849120FF03C0B4
S113121082958F703F5F8F708A3018F090E0C79688
S113122002C090E0C0968D939D932F5F243149F7BF
S11312305FBF08EE10E0F8018081877F80836AE257
S113124070E0CE010196BBDBF80180818B7780834F
S113125051C060915A0170915B01AE014F5F5F4FC5
S11312600E94C800BC01892B09F444C008EE10E0B8
S1131270F8019081977F908389819A8188DCF801B5
S113128080818B77808336C09038A1F5E8EEF0E05A
S11312908081877F8083809151018093F1008081D8
S11312A08E778083A9DD26C0911124C080915801D6
S11312B09091590199270297ECF4E8EEF0E08081CF
S11312C0877F8083809158018093510195DD8091BF
S11312D05101882321F084E08093550109C0809155
S11312E0E300882314F081E001C084E08093550179
S11312F00E943B018091E80083FF16C0E8EEF0E015
S11313008081877F8083EBEEF0E080818062808340
S11313100BC090915801913069F7FDCE809158012E
S1131320882309F4FFCE2ACFAA960FB6F894DEBF1D
S11313300FBECDBFDF91CF911F910F9108950895F6
S1131340CF9380915501882399F0C091E900CF7023
S11313508091EC00982F917080FD90E8C92B109239
S1131360E9008091E80083FD70DECF70C093E9004E
S1131370CF910895FB01DC0104C08D910190801987
S113138021F441505040C8F7881B990B0895FB0184
S1131390DC0102C001900D9241505040D8F70895ED
S11313A0DC0101C06D9341505040E0F70895F8947A
S10513B0FFCF69
S11313B20081080000013401080000000000000060
S11313C2250007280006280007250007280006280C
S11313D200070400050006001E001F002000020092
S10713E208003900C2
S9030000FC
